S0120000536D6172745F486F6D652E7372656323
S113000012C024C023C022C021C020C01FC01EC0F3
S11300101DC01CC01BC01AC019C018C017C016C010
S113002015C014C013C011241FBECFE5D4E0DEBF39
S1130030CDBF10E0A0E6B0E0E8EEF1E002C005902C
S11300400D92A237B107D9F708D0CCC0D9CF80E63A
S113005090E0B9D0809364000895F9DF80E690E0E1
S11300604FD0809364002FE986E891E021508040CE
S11300709040E1F700C00000F1CF0097E9F1611171
S11300801DC0DC011296EC911297F0E0EE0FFF1FF9
S1130090E559FF4F0190F081E02D408121E030E0EF
S11300A0B90113960C9002C0660F771F0A94E2F709
S11300B0CB0180958423808381E008956130F1F43D
S11300C0DC011296EC911297F0E0EE0FFF1FE55958
S11300D0FF4F0190F081E02D408121E030E0B90133
S11300E013960C9002C0660F771F0A94E2F7CB01B7
S11300F0842B808381E0089580E0089581E0089551
S11301000097E1F0DC011296EC911297F0E0EE0F0B
S1130110FF1FE559FF4F0190F081E02D408121E060
S113012030E0B90113960C9002C0660F771F0A9451
S1130130E2F7CB018427808381E0089580E008956D
S11301400097E9F161111CC0DC011296EC91129741
S1130150F0E0EE0FFF1FEB59FF4F0190F081E02D0F
S1130160408121E030E0B90113960C9002C0660F83
S1130170771F0A94E2F7CB01842B808381E00895F2
S11301806130F9F4DC011296EC911297F0E0EE0F75
S1130190FF1FEB59FF4F0190F081E02D408121E0DA
S11301A030E0B90113960C9002C0660F771F0A94D1
S11301B0E2F7CB0180958423808381E0089580E079
S11301C0089581E00895CF93DF93009739F0EC010F
S11301D06981B6DF6881CE0150DF01C080E0DF9124
S10B01E0CF910895F894FFCFBC
S11301E800000200013700340031003800350032C5
S10501F8000001
S9030000FC
