S0120000536D6172745F486F6D652E7372656323
S113000012C078C4A3C42AC029C028C027C026C0EF
S113001025C024C023C022C021C020C01FC01EC0D0
S11300201DC01CC01BC011241FBECFE5D4E0DEBF21
S1130030CDBF11E0A0E6B0E0E0EBFEE002C0059029
S11300400D92A63BB107D9F721E0A6EBB1E001C0C0
S11300501D92AD3CB207E1F7D8D228C7D1CF0097A3
S113006011F0F6D3089580E00895009719F061E047
S113007044D3089580E00895009719F060E03DD3DB
S1130080089580E00895892B29F081B3806381BBB2
S113009081E0089580E00895892B41F082B3806166
S11300A082BB82B38F7D82BB81E0089580E0089596
S11300B0892B41F082B38F7E82BB82B3806282BB84
S11300C081E0089580E00895892B41F082B38F7E0A
S11300D082BB82B38F7D82BB81E0089580E0089566
S11300E05F926F927F928F929F92AF92BF92CF92C4
S11300F0DF92EF92FF920F931F93CF93DF931F92A0
S1130100CDB7DEB7009709F463C04A013B016C0127
S1130110512C81E051105DC0F4019081911159C0BE
S1130120A12CB12C4FC05110F5CF00E010E00CC051
S1130130C8010496880F991F880F991F61E08C0DE0
S11301409D1DDBD20F5F1F4F0330110588F3C501DE
S11301500496880F991F880F991F60E08C0D9D1DD0
S1130160CCD200E010E028C07801EE0CFF1CEE0CAD
S1130170FF1CEC0CFD1CBE016F5F7F4FC70100D359
S11301809981911117C0BE016F5F7F4FC701F8D2EB
S113019099819130C1F7F801EE0FFF1FE00FF11FB5
S11301A0E954FF4FEA0DFB1D9081F3019083552420
S11301B0539405C00F5F1F4F04301105A8F2FFEFE1
S11301C0AF1ABF0A93E0A916B10408F4ACCFA2CFCA
S11301D080E00F90DF91CF911F910F91FF90EF90EE
S11301E0DF90CF90BF90AF909F908F907F906F9053
S11301F05F900895EF92FF920F931F93CF93DF9335
S1130200009731F17B018C01C0E0D0E081E009C0AE
S1130210CE01880F991F880F991F800F911F18D343
S11302202196C430D105A0F3C0E0D0E00AC0CE01CD
S11302300496880F991F880F991F800F911F08D368
S11302402196C330D10598F3F801F58EE48E01C0F0
S113025080E0DF91CF911F910F91FF90EF9008956F
S11302605F926F927F928F929F92AF92BF92CF9242
S1130270DF92EF92FF920F931F93CF93DF931F921E
S1130280CDB7DEB7009709F443C06115710509F4D1
S113029041C079013A014B016C01A12CB12C00E061
S11302A010E05524539430C0F7018081811133C08C
S11302B0A701BE016F5F7F4FC60112DF582E8981EF
S11302C08332B1F4F601648D758DC401E6D5892BB2
S11302D021F481E0F30180831EC0F3011082043015
S11302E0110581F4FFEFAF1ABF0A00E010E00CC063
S11302F00430110548F4F401E00FF11F80830F5F0F
S11303001F4F02C000E010E0A114B10469F203C061
S1130310512C01C0512C852D0F90DF91CF911F914D
S11303200F91FF90EF90DF90CF90BF90AF909F9090
S11303308F907F906F905F900895CF93DF93009795
S113034031F0EC0185D2CE01049682D201C080E066
S1130350DF91CF910895CF93DF93009741F0EC01A3
S113036061E0CBD160E0CE010496C7D101C080E04A
S1130370DF91CF910895CF93DF93009741F0EC0183
S113038061E0BBD161E0CE010496B7D101C080E049
S1130390DF91CF910895CF93DF93009741F0EC0163
S11303A060E0ABD161E0CE010496A7D101C080E04A
S11303B0DF91CF91089581E08093B801089581E0A1
S11303C08093B701089580EA90E0ECD28093A40072
S11303D0609177008091C9019091CA0109D382EAA2
S11303E090E059D18093A4000DD38AE990E072D2B1
S11303F08093A40086E990E06DD28093A4008FE6F8
S113040090E09BDF8093A40087E690E03CDE80933D
S1130410A400609160007091610088E790E0EADEDA
S11304208093A40083E690E01ADE8093A4000895EC
S11304306BEC71E080919F004AD18093A40060919D
S1130440CB017091CC01072E000C880B990BEDD3D6
S113045020E030E040EA50E474D420E030E040E8AA
S11304605AE36FD420E030E040E05FE3E3D220E0E1
S113047030E048EC52E465D4C7D4A9D37093BF01EB
S11304806093BE01643171057CF41092C101109235
S1130490C0016091B90180E090E0AAD28FE690E0BB
S11304A06ADF8093A4000895AB01445151094B3095
S11304B0510548F52FEF31E0429FC001439F900D55
S11304C0529F900D1124BC01990F880B990BADD349
S11304D020E030E040E251E412D320E030E040E09C
S11304E054E4A9D291D473D3DC01CB019093C1011C
S11304F08093C0016091B9017BD28FE690E04BDF1D
S11305008093A40008956F31710574F08FEF93E028
S11305109093C1018093C0016091B90169D28FE6C3
S113052090E019DF8093A40008956BEC71E0809152
S11305309E00CDD08093A4006091CB017091CC013A
S1130540072E000C880B990B70D320E030E048ECA8
S113055052E4F7D320E030E849EC53E4D0D254D449
S11305609B01AC0160E070E088EC92E463D22FD38D
S11305707093C8016093C70180E090E054D320E0F9
S113058030EC4FE754E4DDD320E030E048EC52E4B3
S1130590B6D23AD41CD3DC01CB019093CA01809328
S11305A0C9016091770024D2089587E690E074DD54
S11305B08093A4002FE38DE093E02150804090408D
S11305C0E1F700C0000087E690E07EDD8093A400A0
S11305D02FE382E49FE0215080409040E1F700C087
S11305E0000087E690E064DD8093A4002FE38DE0B3
S11305F093E0215080409040E1F700C0000087E67E
S113060090E062DD8093A4000895DDDE83EC90E049
S113061005D28091B60181110BC027EB31E046EB86
S113062051E062EC71E088E790E01ADE8093A40068
S11306308091B601811104C08091B701882311F122
S1130640809162008823B9F0B0DF8091B7018823DC
S113065021F08DEE90E0E2D107C08091B6018823AD
S113066019F08DE291E0DAD183E690E005DD809324
S1130670A400109262008091B801882351F2D8DE60
S113068054DFC7CF88E691E0C9D183E690E0EDDC82
S11306908093A400BECFFC01892BB9F086B18F777B
S11306A086B987B1908140E4949F900111248F739F
S11306B0282B27B996B18181987F8770892B86B9B9
S11306C086B1806886B981E0089580E00895611557
S11306D0710589F097B1907F8F70892B87B986B1A6
S11306E0806486B93699FECF84B195B1FB019183BC
S11306F0808381E0089580E008950097E9F1611115
S11307001DC0DC011296EC911297F0E0EE0FFF1F72
S1130710EF54FF4F0190F081E02D408121E030E063
S1130720B90113960C9002C0660F771F0A94E2F782
S1130730CB0180958423808381E008956130F1F4B6
S1130740DC011296EC911297F0E0EE0FFF1FEF54CC
S1130750FF4F0190F081E02D408121E030E0B901AC
S113076013960C9002C0660F771F0A94E2F7CB0130
S1130770842B808381E0089580E0089581E00895CA
S11307800097F9F061157105F1F0DC011296EC9116
S11307901297F0E0EE0FFF1FEB55FF4F0190F08131
S11307A0E02D208130E0F90113960C9002C0F595FC
S11307B0E7950A94E2F7CF018170DB018C9381E025
S11307C0089580E0089580E008950097E9F161308C
S11307D0E1F4DC011296EC911297F0E0EE0FFF1FAA
S11307E0E555FF4F0190F081E02D408121E030E09C
S11307F0B90113960C9002C0660F771F0A94E2F7B2
S1130800CB01842B808381E0089561111FC0DC013A
S11308101296EC911297F0E0EE0FFF1FE555FF4F93
S11308200190F081E02D408121E030E0B901139680
S11308300C9002C0660F771F0A94E2F7CB018095F3
S11308408423808381E0089580E0089581E0089501
S1130850CF93DF93009739F0EC016981B6DF6881AB
S1130860CE014BDF01C080E0DF91CF910895FC0100
S11308709BB79F7B9BBF91B39B7F91BB95B7238114
S11308809C7F922B95BF808191819093BD01809331
S1130890BC018BB780648BBF0895FC019BB79F7725
S11308A09BBF91B3977F91BB45B79381292F30E0CC
S11308B0220F331F220F331F942F937F292B25BF21
S11308C0808191819093BB018093BA018BB780683A
S11308D08BBF0895009761F0FC012281211102C0B1
S11308E0C6DF03C0213009F4D8DF789481E008958D
S11308F080E008951F920F920FB60F9211242F9348
S11309003F934F935F936F937F938F939F93AF9393
S1130910BF93EF93FF938AB78F7B8ABFE091BC01AB
S1130920F091BD01309709F00995FF91EF91BF91C6
S1130930AF919F918F917F916F915F914F913F9173
S11309402F910F900FBE0F901F9018951F920F922A
S11309500FB60F9211242F933F934F935F936F938E
S11309607F938F939F93AF93BF93EF93FF938AB734
S11309708F778ABFE091BA01F091BB01309709F0FB
S11309800995FF91EF91BF91AF919F918F917F91C5
S11309906F915F914F913F912F910F900FBE0F90E8
S11309A01F901895FC01892B09F197B3926097BBAE
S11309B097B3946097BB88E08EBD83E08FBD9FB5ED
S11309C09F7390689FBD9FB59F7C90629FBD8EB5BD
S11309D09181877F892B8EBD8CED95E09BBD8ABD6F
S11309E088EE93E099BD88BD81E0089580E0089584
S11309F0611103C09BBD8ABD0895613011F499BD96
S1130A0088BD089510BC83E389B988E08AB986E873
S1130A1080BD08955D9BFECF8CB90895CF93DF937D
S1130A20EC0102C02196F6DF88818111FBCFDF91B2
S1130A30CF9108955058BB27AA270ED048C139D169
S1130A4030F03ED120F031F49F3F11F41EF42EC15A
S1130A500EF4E095E7FB24C1E92F4AD180F3BA17DD
S1130A60620773078407950718F071F49EF562C155
S1130A700EF4E0950B2EBA2FA02D0B01B9019001B5
S1130A800C01CA01A0011124FF27591B99F0593FF9
S1130A9050F4503E68F11A16F040A22F232F342F41
S1130AA04427585FF3CF469537952795A795F0408F
S1130AB05395C9F77EF41F16BA0B620B730B840BA4
S1130AC0BAF09150A1F0FF0FBB1F661F771F881F5C
S1130AD0C2F70EC0BA0F621F731F841F48F48795B4
S1130AE077956795B795F7959E3F08F0B3CF9395A3
S1130AF0880F08F09927EE0F9795879508950CD0E5
S1130B00E6C0DED040F0D5D030F021F45F3F19F0DC
S1130B10C7C0511110C1CAC0EBD098F39923C9F3CF
S1130B205523B1F3951B550BBB27AA2762177307EF
S1130B30840738F09F5F5F4F220F331F441FAA1FA3
S1130B40A9F333D00E2E3AF0E0E830D09150504063
S1130B50E695001CCAF729D0FE2F27D0660F771F11
S1130B60881FBB1F261737074807AB07B0E809F0F3
S1130B70BB0B802DBF01FF2793585F4F2AF09E3F88
S1130B80510568F08DC0D7C05F3FECF3983EDCF3AD
S1130B90869577956795B795F7959F5FC9F7880F01
S1130BA0911D9695879597F90895E1E0660F771F53
S1130BB0881FBB1F621773078407BA0720F0621BE4
S1130BC0730B840BBA0BEE1F88F7E095089598D049
S1130BD088F09F5790F0B92F9927B751A0F0D1F022
S1130BE0660F771F881F991F1AF0BA95C9F712C0AC
S1130BF0B13081F09FD0B1E008959CC0672F782F69
S1130C008827B85F39F0B93FCCF386957795679517
S1130C10B395D9F73EF490958095709561957F4F83
S1130C208F4F9F4F0895E89409C097FB3EF4909529
S1130C308095709561957F4F8F4F9F4F9923A9F0B1
S1130C40F92F96E9BB279395F69587957795679540
S1130C50B795F111F8CFFAF4BB0F11F460FF1BC084
S1130C606F5F7F4F8F4F9F4F16C0882311F096E917
S1130C7011C0772321F09EE8872F762F05C06623C5
S1130C8071F096E8862F70E060E02AF09A95660F7E
S1130C90771F881FDAF7880F9695879597F9089537
S1130CA097F99F6780E870E060E008959FEF80EC1B
S1130CB0089500240A9416161706180609060895BE
S1130CC000240A9412161306140605060895092E24
S1130CD00394000C11F4882352F0BB0F40F4BF2B93
S1130CE011F460FF04C06F5F7F4F8F4F9F4F0895D3
S1130CF057FD9058440F551F59F05F3F71F04795C9
S1130D00880F97FB991F61F09F3F79F087950895AD
S1130D10121613061406551FF2CF4695F1DF08C0CC
S1130D20161617061806991FF1CF869571056105E9
S1130D3008940895E894BB2766277727CB0197F991
S1130D4008950BD0C4CFB5DF28F0BADF18F095238F
S1130D5009F0A6CFABCF1124EECFCADFA0F3959F45
S1130D60D1F3950F50E0551F629FF001729FBB278E
S1130D70F00DB11D639FAA27F00DB11DAA1F649F3A
S1130D806627B00DA11D661F829F2227B00DA11DED
S1130D90621F739FB00DA11D621F839FA00D611D73
S1130DA0221F749F3327A00D611D231F849F600D94
S1130DB0211D822F762F6A2F11249F5750408AF0CD
S1130DC0E1F088234AF0EE0FFF1FBB1F661F771F59
S1130DD0881F91505040A9F79E3F510570F060CF95
S1130DE0AACF5F3FECF3983EDCF386957795679541
S1130DF0B795F795E7959F5FC1F7FE2B880F911D77
S1130E009695879597F908957BDFE0F09E37D8F0A3
S1130E109639B8F49E3848F4672F782F8827985F5E
S1130E20F9CF86957795679593959539D0F3B62F35
S1130E30B1706B0F711D811D20F4879577956795AF
S1130E40939502C01CC077CF882371F4772321F0D7
S1130E509850872B762F07C0662311F499270DC06D
S1130E609051862B70E060E02AF09A95660F771F08
S1130E70881FDAF7880F9695879597F908959F3F0D
S1130E8031F0915020F4879577956795B795880F41
S1130E90911D9695879597F90895FB01DC018D9135
S1130EA0019080190110D9F3990B0895F894FFCF9C
S1130EB0B101010001020701010104000101050063
S1130EC0010003000100040101000100010001010F
S1130ED001000102010001030101010401010105F6
S1130EE0010102060000DF010103DB010003070624
S1130EF002030101013600330030003700340031B1
S1130F000038003500320031323334353637383961
S1130F102A302357656C636F6D65202C20456E74F1
S1130F206572207468652070617373776F726420D2
S1130F306F6E204B6579706164200A0D00446F6FF9
S1130F4072206973206F70656E6564207573696EB5
S1130F5067206661636520646574656374696F6E98
S1130F602E2057656C636F6D6520746F20796F75E3
S1130F707220486F6D6520283A200A0D00446F6F77
S1130F8072206973206F70656E6564207573696E75
S1130F90672050617373776F7264202E2057656CDD
S1130FA0636F6D6520746F20796F757220486F6D63
S1130FB06520283A200A0D0050617373776F7264BC
S1130FC02069732077726F6E67202C5472792061C8
S1130FD06761696E0A0D0054656D706572617475A0
S1130FE07265203A2000202D2D2D2D2D2D2D2D2DF7
S1130FF02D204C69676874696E67203A20000D0AD9
S10910000031323334001C
S9030000FC
