S0120000536D6172745F486F6D652E7372656323
S113000012C013C23EC22AC029C028C027C026C0BD
S113001025C024C023C022C021C020C01FC01EC0D0
S11300201DC01CC01BC011241FBECFE5D4E0DEBF21
S1130030CDBF10E0A0E6B0E0E8E5F9E002C005902D
S11300400D92A238B107D9F720E0A2E8B0E001C0D0
S11300501D92AE38B207E1F7DBD07CC4D1CFCF9389
S1130060DF93009731F0EC018FD1CE0104968CD14F
S113007001C080E0DF91CF910895CF93DF93009783
S113008041F0EC0161E0FAD060E0CE010496F6D0D4
S113009001C080E0DF91CF910895CF93DF93009763
S11300A041F0EC0161E0EAD061E0CE010496E6D0D3
S11300B001C080E0DF91CF910895CF93DF93009743
S11300C041F0EC0160E0DAD061E0CE010496D6D0D4
S11300D001C080E0DF91CF91089581E090E090939A
S11300E0830080938200089588E690E04DD1809348
S11300F074008CE690E087D18093740082E790E0EE
S11301008AD08093740080E690E0A9DF8093740025
S113011008958091820090918300892B09F477C01F
S11301206CE870E08091710093D0809374006091CA
S11301308C0070918D00072E000C880B990BDBD27C
S113014020E030E040EA50E4A2D320E030E040E890
S11301505AE39DD320E030E040E05FE3BED120E0ED
S113016030E048EC52E493D31DD297D29B017093B4
S11301708900609388006431710534F480E690E06E
S11301808CDF8093740013C0645171096A30710567
S113019030F480E690E091DF8093740008C02E3143
S11301A031052CF080E690E068DF809374006CE801
S11301B070E0809170004CD08093740060918C004A
S11301C070918D00072E000C880B990B94D220E0BF
S11301D030E048EC52E45BD320E030E44FE354E4F5
S11301E0F4D1E0D15AD270938B0060938A006036C8
S11301F0710538F061E088E690E040D080937400A7
S1130200089560E088E690E039D080937400089502
S11302106BDF7FDFFECFFC01892BC1F086B18F77C6
S113022086B987B1908140E4949F900111248F7323
S1130230282B27B996B18181987F8770892B86B93D
S113024014BA86B1806886B981E0089580E0089583
S11302506115710589F097B1907F8F70892B87B9EB
S113026086B1806486B93699FECF84B195B1FB011D
S11302709183808381E0089580E008950097E9F1F7
S113028061111DC0DC011296EC911297F0E0EE0FA3
S1130290FF1FE558FF4F0190F081E02D408121E0E0
S11302A030E0B90113960C9002C0660F771F0A94D0
S11302B0E2F7CB0180958423808381E00895613047
S11302C0F1F4DC011296EC911297F0E0EE0FFF1FAF
S11302D0E558FF4F0190F081E02D408121E030E0AE
S11302E0B90113960C9002C0660F771F0A94E2F7C7
S11302F0CB01842B808381E0089580E0089581E020
S113030008950097E9F16130E1F4DC011296EC9173
S11303101297F0E0EE0FFF1FEB58FF4F0190F081B2
S1130320E02D408121E030E0B90113960C9002C029
S1130330660F771F0A94E2F7CB01842B808381E058
S1130340089561111FC0DC011296EC911297F0E040
S1130350EE0FFF1FEB58FF4F0190F081E02D40811D
S113036021E030E0B90113960C9002C0660F771FAC
S11303700A94E2F7CB0180958423808381E0089579
S113038080E0089581E00895CF93DF93009739F0DA
S1130390EC016981B6DF6881CE0170DF01C080E0C5
S11303A0DF91CF910895FC019BB79F7B9BBF91B3D5
S11303B09B7F91BB25B793812C7F9370922B95BF24
S11303C08081918190938700809386008BB78064AD
S11303D08BBF78940895FC019BB79F779BBF91B323
S11303E0977F91BB25B79381237F9C70922B95BFF8
S11303F08081918190938500809384008BB780687D
S11304008BBF78940895009761F0FC01228121113B
S113041003C0C9DF81E00895213029F4DCDF81E0E5
S1130420089580E0089581E008951F920F920FB619
S11304300F9211242F933F934F935F936F937F9366
S11304408F939F93AF93BF93EF93FF938AB78F7B61
S11304508ABFE0918600F0918700309709F00995F2
S1130460FF91EF91BF91AF919F918F917F916F9188
S11304705F914F913F912F910F900FBE0F901F905E
S113048018951F920F920FB60F9211242F933F933A
S11304904F935F936F937F938F939F93AF93BF9388
S11304A0EF93FF938AB78F778ABFE0918400F0912E
S11304B08500309709F00995FF91EF91BF91AF91B5
S11304C09F918F917F916F915F914F913F912F9168
S11304D00F900FBE0F901F9018955058BB27AA2756
S11304E00ED084C175D130F07AD120F031F49F3F21
S11304F011F41EF46AC10EF4E095E7FB37C1E92F4D
S113050086D180F3BA17620773078407950718F03A
S113051071F49EF5B5C10EF4E0950B2EBA2FA02D03
S11305200B01B90190010C01CA01A0011124FF279C
S1130530591B99F0593F50F4503E68F11A16F04097
S1130540A22F232F342F4427585FF3CF4695379596
S11305502795A795F0405395C9F77EF41F16BA0B5B
S1130560620B730B840BBAF09150A1F0FF0FBB1F09
S1130570661F771F881FC2F70EC0BA0F621F731F52
S1130580841F48F4879577956795B795F7959E3FAF
S113059008F0B3CF9395880F08F09927EE0F97953D
S11305A08795089556D180F09F3740F491110EF449
S11305B068C160E070E080E89FE3089526F01B16B0
S11305C0611D711D811DD8C0F2C00CD00FC107D1AF
S11305D040F0FED030F021F45F3F19F0C7C0511154
S11305E050C1F3C014D198F39923C9F35523B1F33F
S11305F0951B550BBB27AA2762177307840738F08E
S11306009F5F5F4F220F331F441FAA1FA9F333D0EC
S11306100E2E3AF0E0E830D091505040E695001CA0
S1130620CAF729D0FE2F27D0660F771F881FBB1F5C
S1130630261737074807AB07B0E809F0BB0B802D36
S1130640BF01FF2793585F4F2AF09E3F510568F082
S11306508DC017C15F3FECF3983EDCF38695779528
S11306606795B795F7959F5FC9F7880F911D969584
S1130670879597F90895E1E0660F771F881FBB1FE0
S1130680621773078407BA0720F0621B730B840B8D
S1130690BA0BEE1F88F7E0950895C1D088F09F57F4
S11306A090F0B92F9927B751A0F0D1F0660F771FBA
S11306B0881F991F1AF0BA95C9F712C0B13081F09A
S11306C0DFD0B1E00895DCC0672F782F8827B85FAA
S11306D039F0B93FCCF3869577956795B395D9F7FB
S11306E03EF490958095709561957F4F8F4F9F4F05
S11306F00895E89409C097FB3EF490958095709511
S113070061957F4F8F4F9F4F9923A9F0F92F96E959
S1130710BB279395F695879577956795B795F111CE
S1130720F8CFFAF4BB0F11F460FF1BC06F5F7F4F6B
S11307308F4F9F4F16C0882311F096E911C077237D
S113074021F09EE8872F762F05C0662371F096E886
S1130750862F70E060E02AF09A95660F771F881F55
S1130760DAF7880F9695879597F9089597F99F6713
S113077080E870E060E00895882371F4772321F025
S11307809850872B762F07C0662311F499270DC044
S11307909051862B70E060E02AF09A95660F771FDF
S11307A0881FDAF7880F9695879597F908959F3FE4
S11307B031F0915020F4879577956795B795880F18
S11307C0911D9695879597F908959FEF80EC08956C
S11307D000240A941616170618060906089500241C
S11307E00A9412161306140605060895092E039496
S11307F0000C11F4882352F0BB0F40F4BF2B11F40A
S113080060FF04C06F5F7F4F8F4F9F4F089557FD68
S11308109058440F551F59F05F3F71F04795880F6A
S113082097FB991F61F09F3F79F087950895121601
S113083013061406551FF2CF4695F1DF08C01616AD
S113084017061806991FF1CF86957105610508945E
S11308500895E5DFA0F0BEE7B91788F4BB279F38F9
S113086060F41616B11D672F782F8827985FF7CF8D
S1130870869577956795B11D93959639C8F3089534
S1130880E894BB2766277727CB0197F908950BD007
S1130890ADCF9EDF28F0A3DF18F0952309F066CFD3
S11308A094CF1124EECFB3DFA0F3959FD1F3950F2E
S11308B050E0551F629FF001729FBB27F00DB11DE0
S11308C0639FAA27F00DB11DAA1F649F6627B00D70
S11308D0A11D661F829F2227B00DA11D621F739F59
S11308E0B00DA11D621F839FA00D611D221F749F67
S11308F03327A00D611D231F849F600D211D822FAE
S1130900762F6A2F11249F5750408AF0E1F08823F4
S11309104AF0EE0FFF1FBB1F661F771F881F915001
S11309205040A9F79E3F510570F020CFAACF5F3FFA
S1130930ECF3983EDCF3869577956795B795F79534
S1130940E7959F5FC1F7FE2B880F911D96958795BC
S10B095097F90895F894FFCF14
S11309580001020000010201000102046D0000030D
S11309680706010101370034003100380035003230
S1050978000079
S9030000FC
