:1000000012C013C43EC42AC029C028C027C026C0BD
:1000100025C024C023C0C9C421C020C01FC01EC029
:100020001DC01CC01BC011241FBECFE5D4E0DEBF25
:10003000CDBF11E0A0E6B0E0E8ECFEE002C0059024
:100040000D92A23CB107D9F721E0A2ECB1E001C0CA
:100050001D92A03EB207E1F7B3D234C7D1CF0097CB
:1000600011F091D3089580E00895009719F061E0B0
:10007000DFD2089580E00895009719F060E0D8D2AB
:10008000089580E00895EF92FF920F931F93CF930E
:10009000DF93009731F17B018C01C0E0D0E081E07B
:1000A00009C0CE01880F991F880F991F800F911FDB
:1000B0006AD32196C430D105A0F3C0E0D0E00AC0D5
:1000C000CE010496880F991F880F991F800F911FEA
:1000D0005AD32196C330D10598F3F801F58EE48EFA
:1000E00001C080E0DF91CF911F910F91FF90EF90C1
:1000F00008955F926F927F928F929F92AF92BF927C
:10010000CF92DF92EF92FF920F931F93CF93DF93E3
:100110001F92CDB7DEB7009709F471C03A014B01C9
:100120006C01512C81E067C0F3019081923009F499
:100130005BC066C051105FC000E010E00CC0C80199
:100140000496880F991F880F991F61E08C0D9D1DE3
:100150006FD20F5F1F4F0330110588F3C50104965E
:10016000880F991F880F991F60E08C0D9D1D60D22C
:10017000E1EEF4E03197F1F700C00000E12CF12C42
:100180002BC08701000F111F000F111F0C0D1D1D2B
:10019000BE016F5F7F4FC8018ED29981911117C048
:1001A000F701EE0FFF1FEE0DFF1DE255FF4FEA0DA9
:1001B000FB1D9081F401908305C0BE016F5F7F4FEE
:1001C000C80179D299819130C1F7552453945110C7
:1001D00007C0FFEFEF1AFF0A94E0E916F10488F276
:1001E000EFEFAE1ABE0A02C0A12CB12CF3E0AF169D
:1001F000B10408F49FCF552009F496CF01C080E0E8
:100200000F90DF91CF911F910F91FF90EF90DF90B2
:10021000CF90BF90AF909F908F907F906F905F90A6
:1002200008957F928F929F92AF92BF92CF92DF926A
:10023000EF92FF920F931F93CF93DF931F92CDB74F
:10024000DEB7009789F16115710581F179014A01E5
:100250005B016C0100E010E077247394F70180816A
:10026000823029F5A701BE016F5F7F4FC60141DFD4
:10027000782E8981833271F4F601648D758DC50104
:1002800018D6892B21F481E0F401808310C0F40199
:1002900010820DC00430110508F7F501E00FF11FC1
:1002A00080830F5F1F4FDACF712C01C0712C872D17
:1002B0000F90DF91CF911F910F91FF90EF90DF9002
:1002C000CF90BF90AF909F908F907F900895CF93E5
:1002D000DF93009731F0EC0156D2CE01049653D251
:1002E00001C080E0DF91CF910895CF93DF93009715
:1002F00041F0EC0161E09CD160E0CE01049698D120
:1003000001C080E0DF91CF910895CF93DF930097F4
:1003100041F0EC0161E08CD161E0CE01049688D11E
:1003200001C080E0DF91CF910895CF93DF930097D4
:1003300041F0EC0160E07CD161E0CE01049678D11F
:1003400001C080E0DF91CF91089581E08093C501E5
:1003500008958AE5FAD284EBF8D22FEF89E698E186
:10036000215080409040E1F700C00000089585E9E9
:1003700090E0B3D280939900E0D287E990E026D153
:100380008093990081E990E0EAD28BE890E03DD239
:100390008093990084E690E09ADF809399006091C1
:1003A0009A0070919B008DE690E06DDE809399003D
:1003B00080E690E054DE809399006091C20180E075
:1003C00090E0B1D260916C0080E090E0ACD20895F2
:1003D0008AE5BBD2089569ED71E08091900012D159
:1003E000809399006091D9017091DA01072E000C79
:1003F000880B990BFFD320E030E040EA50E486D42C
:1004000020E030EC4FE754E45FD320E030E040E000
:100410005FE3F5D220E030E048EC52E477D4D9D461
:10042000BBD37093CB016093CA01643171057CF436
:100430001092CD011092CC016091C20180E090E059
:1004400072D284E690E061DF809399000895AB0159
:10045000445151094B30510548F52FEF31E0429F8F
:10046000C001439F900D529F900D1124BC01990F24
:10047000880B990BBFD320E030E040E251E424D355
:1004800020E030E040E054E4BBD2A3D485D3DC01CB
:10049000CB019093CD018093CC016091C20143D2F6
:1004A00084E690E042DF8093990008956F317105F2
:1004B00074F08FEF93E09093CD018093CC01609125
:1004C000C20131D284E690E010DF80939900089554
:1004D00063ED71E080918F0095D080939900209119
:1004E000D3013091D4018FEF93E0821B930B909353
:1004F000D8018093D70160916C0015D26091D3012F
:100500007091D401072E000C880B990B73D320E057
:1005100030E048EC52E4FAD320E030EC4FE754E40A
:10052000D3D257D49B01AC0160E070E088EC92E438
:1005300066D232D37093D6016093D501089580912D
:10054000C401813039F48AEB90E023D202DF1092AB
:10055000C4012FC0823051F580EE90E01AD28AEEAD
:1005600090E017D224EC31E043EC51E06EEC71E006
:100570008DE690E056DE809399008091C301882338
:1005800051F08FE291E005D280E690E075DD809336
:100590009900DFDE08C08FE491E0FBD180E690E0B7
:1005A00064DD809399001092C40103C0811101C0E1
:1005B0000FDF8091C501882311F00DDF89DF0895D9
:1005C000D6DE80EE90E0E5D1BADFFECFFC01892BCC
:1005D000B9F086B18F7786B987B1908140E4949F56
:1005E000900111248F73282B27B996B18181987FB0
:1005F0008770892B86B986B1806886B981E00895B5
:1006000080E008956115710589F097B1907F8F7032
:10061000892B87B986B1806486B93699FECF84B1BB
:1006200095B1FB019183808381E0089580E0089576
:100630000097E9F161111DC0DC011296EC9112974F
:10064000F0E0EE0FFF1FE855FF4F0190F081E02D25
:10065000408121E030E0B90113960C9002C0660F92
:10066000771F0A94E2F7CB0180958423808381E091
:1006700008956130F1F4DC011296EC911297F0E0EC
:10068000EE0FFF1FE855FF4F0190F081E02D4081F4
:1006900021E030E0B90113960C9002C0660F771F7D
:1006A0000A94E2F7CB01842B808381E0089580E0F7
:1006B000089581E008950097F9F061157105F1F052
:1006C000DC011296EC911297F0E0EE0FFF1FE4565A
:1006D000FF4F0190F081E02D208130E0F901139669
:1006E0000C9002C0F595E7950A94E2F7CF0181706E
:1006F000DB018C9381E0089580E0089580E0089507
:100700000097E9F16130E1F4DC011296EC91129767
:10071000F0E0EE0FFF1FEE55FF4F0190F081E02D4E
:10072000408121E030E0B90113960C9002C0660FC1
:10073000771F0A94E2F7CB01842B808381E0089530
:1007400061111FC0DC011296EC911297F0E0EE0FE0
:10075000FF1FEE55FF4F0190F081E02D408121E019
:1007600030E0B90113960C9002C0660F771F0A940F
:10077000E2F7CB0180958423808381E0089580E0B7
:10078000089581E00895CF93DF93009739F0EC014D
:100790006981B6DF6881CE014BDF01C080E0DF9167
:1007A000CF910895FC019BB79F7B9BBF91B39B7F2B
:1007B00091BB95B723819C7F922B95BF80819181BE
:1007C0009093C9018093C8018BB780648BBF089553
:1007D000FC019BB79F779BBF91B3977F91BB45B7B8
:1007E0009381292F30E0220F331F220F331F942FC4
:1007F000937F292B25BF808191819093C70180939E
:10080000C6018BB780688BBF0895009761F0FC012B
:100810002281211102C0C6DF03C0213009F4D8DFD4
:10082000789481E0089580E008951F920F920FB6AA
:100830000F9211242F933F934F935F936F937F9366
:100840008F939F93AF93BF93EF93FF938AB78F7B61
:100850008ABFE091C801F091C901309709F009956C
:10086000FF91EF91BF91AF919F918F917F916F9188
:100870005F914F913F912F910F900FBE0F901F905E
:1008800018951F920F920FB60F9211242F933F933A
:100890004F935F936F937F938F939F93AF93BF9388
:1008A000EF93FF938AB78F778ABFE091C601F091EB
:1008B000C701309709F00995FF91EF91BF91AF9172
:1008C0009F918F917F916F915F914F913F912F9168
:1008D0000F900FBE0F901F901895FC01892B09F106
:1008E00097B3926097BB97B3946097BB88E08EBD37
:1008F00083E08FBD9FB59F7390689FBD9FB59F7C20
:1009000090629FBD8EB59181877F892B8EBD8CEDC6
:1009100095E09BBD8ABD88EE93E099BD88BD81E0DE
:10092000089580E00895611103C09BBD8ABD0895BC
:10093000613011F499BD88BD089587B3886087BB85
:100940008CE685BD8DE783BD08952DE7829FC001AC
:10095000112464EB70E086D2635863BD089510BC27
:1009600023E329B928E92AB926E820BDFC01208122
:1009700031813093DF012093DE0182819381909356
:10098000DD018093DC01789408955D9BFECF8CB9E6
:100990000895CF93DF93EC0102C02196F6DF8881A2
:1009A0008111FBCFDF91CF9108951F920F920FB667
:1009B0000F9211248F93EF93FF938CB1803331F416
:1009C000E091DC01F091DD01108211C0813339F436
:1009D000E091DC01F091DD0181E0808308C0823389
:1009E00031F4E091DC01F091DD0182E08083FF9140
:1009F000EF918F910F900FBE0F901F901895505848
:100A0000BB27AA270ED048C139D130F03ED120F003
:100A100031F49F3F11F41EF42EC10EF4E095E7FB74
:100A200024C1E92F4AD180F3BA17620773078407FC
:100A3000950718F071F49EF562C10EF4E0950B2E47
:100A4000BA2FA02D0B01B90190010C01CA01A00120
:100A50001124FF27591B99F0593F50F4503E68F17B
:100A60001A16F040A22F232F342F4427585FF3CFBC
:100A7000469537952795A795F0405395C9F77EF48D
:100A80001F16BA0B620B730B840BBAF09150A1F0D6
:100A9000FF0FBB1F661F771F881FC2F70EC0BA0F5C
:100AA000621F731F841F48F4879577956795B795E4
:100AB000F7959E3F08F0B3CF9395880F08F09927DC
:100AC000EE0F9795879508950CD0E6C0DED040F0E4
:100AD000D5D030F021F45F3F19F0C7C0511110C1DB
:100AE000CAC0EBD098F39923C9F35523B1F3951BF2
:100AF000550BBB27AA2762177307840738F09F5F3F
:100B00005F4F220F331F441FAA1FA9F333D00E2EAD
:100B10003AF0E0E830D091505040E695001CCAF71A
:100B200029D0FE2F27D0660F771F881FBB1F2617DF
:100B300037074807AB07B0E809F0BB0B802DBF01B2
:100B4000FF2793585F4F2AF09E3F510568F08DC0F4
:100B5000D7C05F3FECF3983EDCF3869577956795B9
:100B6000B795F7959F5FC9F7880F911D9695879563
:100B700097F90895E1E0660F771F881FBB1F621782
:100B800073078407BA0720F0621B730B840BBA0B40
:100B9000EE1F88F7E095089598D088F09F5790F061
:100BA000B92F9927B751A0F0D1F0660F771F881F92
:100BB000991F1AF0BA95C9F712C0B13081F09FD0D1
:100BC000B1E008959CC0672F782F8827B85F39F06F
:100BD000B93FCCF3869577956795B395D9F73EF4F1
:100BE00090958095709561957F4F8F4F9F4F089599
:100BF000E89409C097FB3EF49095809570956195B7
:100C00007F4F8F4F9F4F9923A9F0F92F96E9BB276C
:100C10009395F695879577956795B795F111F8CFE8
:100C2000FAF4BB0F11F460FF1BC06F5F7F4F8F4F53
:100C30009F4F16C0882311F096E911C0772321F049
:100C40009EE8872F762F05C0662371F096E8862FE1
:100C500070E060E02AF09A95660F771F881FDAF738
:100C6000880F9695879597F9089597F99F6780E87B
:100C700070E060E008959FEF80EC089500240A94EE
:100C80001616170618060906089500240A94121667
:100C90001306140605060895092E0394000C11F49A
:100CA000882352F0BB0F40F4BF2B11F460FF04C047
:100CB0006F5F7F4F8F4F9F4F089557FD9058440FA0
:100CC000551F59F05F3F71F04795880F97FB991FAB
:100CD00061F09F3F79F08795089512161306140668
:100CE000551FF2CF4695F1DF08C0161617061806F5
:100CF000991FF1CF86957105610508940895E894D0
:100D0000BB2766277727CB0197F908950BD0C4CF6F
:100D1000B5DF28F0BADF18F0952309F0A6CFABCFE6
:100D20001124EECFCADFA0F3959FD1F3950F50E0C9
:100D3000551F629FF001729FBB27F00DB11D639F8D
:100D4000AA27F00DB11DAA1F649F6627B00DA11D33
:100D5000661F829F2227B00DA11D621F739FB00DD9
:100D6000A11D621F839FA00D611D221F749F332749
:100D7000A00D611D231F849F600D211D822F762FE2
:100D80006A2F11249F5750408AF0E1F088234AF0DF
:100D9000EE0FFF1FBB1F661F771F881F915050402B
:100DA000A9F79E3F510570F060CFAACF5F3FECF3EB
:100DB000983EDCF3869577956795B795F795E79517
:100DC0009F5FC1F7FE2B880F911D9695879597F928
:100DD00008957BDFE0F09E37D8F09639B8F49E385E
:100DE00048F4672F782F8827985FF9CF86957795F5
:100DF000679593959539D0F3B62FB1706B0F711D30
:100E0000811D20F4879577956795939502C01CC046
:100E100077CF882371F4772321F09850872B762F92
:100E200007C0662311F499270DC09051862B70E0FE
:100E300060E02AF09A95660F771F881FDAF7880F0F
:100E40009695879597F908959F3F31F0915020F43A
:100E5000879577956795B795880F911D9695879596
:100E600097F9089597FB072E16F4009406D077FDA6
:100E700008D00BD007FC05D03EF4909581959F4F8C
:100E80000895709561957F4F0895AA1BBB1B51E192
:100E900007C0AA1FBB1FA617B70710F0A61BB70BEA
:100EA000881F991F5A95A9F780959095BC01CD018F
:100EB0000895FB01DC018D91019080190110D9F397
:080EC000990B0895F894FFCF8F
:100EC8000001000000010204000102050101000107
:100ED80000010001010100010201000103010100FC
:100EE8000501010006010100070000A50100030536
:100EF80004A901C4010201010101BD01360033004A
:100F0800300037003400310038003500320031320B
:100F1800333435363738392A3023446F6F722069B5
:100F280073206F70656E6564207573696E672046FF
:100F380061636520446574656374696F6E0A0D00AA
:100F480057656C636F6D650A0D00596F7572206186
:100F58007265206E6F7420696E2074686520646104
:100F6800746120626173652E20706C656173652001
:100F7800656E746572207468652070617373776F2D
:100F88007264206F6E206B65797061640A0D00448D
:100F98006F6F72206973206F70656E65642075735A
:100FA800696E672070617373776F72640A0D0070E1
:100FB800617373776F7264206973206E6F74205445
:100FC800727565202E506C656173652054727920A6
:100FD800616761696E0A0D0054656D7065726174B0
:100FE800757265203A2000202D2D2D2D2D2D2D2DAB
:100FF8002D2D204D6F746F72205370656564203AF3
:101008002000202D2D2D2D2D2D2D2D2D2D204C6901
:10101800676874696E67203A20000D0A0031323320
:02102800340092
:00000001FF
