:1000000012C017C442C42AC029C028C027C026C0B5
:1000100025C024C023C0CDC421C020C01FC01EC025
:100020001DC01CC01BC011241FBECFE5D4E0DEBF25
:10003000CDBF11E0A0E6B0E0E0EDFEE002C005902B
:100040000D92AA3CB107D9F721E0AAECB1E001C0BA
:100050001D92A83EB207E1F700D238C7D1CF009772
:1000600011F095D3089580E00895009719F061E0AC
:10007000E3D2089580E00895009719F060E0DCD2A3
:10008000089580E00895EF92FF920F931F93CF930E
:10009000DF93009731F17B018C01C0E0D0E081E07B
:1000A00009C0CE01880F991F880F991F800F911FDB
:1000B0006ED32196C430D105A0F3C0E0D0E00AC0D1
:1000C000CE010496880F991F880F991F800F911FEA
:1000D0005ED32196C330D10598F3F801F58EE48EF6
:1000E00001C080E0DF91CF911F910F91FF90EF90C1
:1000F00008955F926F927F928F929F92AF92BF927C
:10010000CF92DF92EF92FF920F931F93CF93DF93E3
:100110001F92CDB7DEB7009709F471C03A014B01C9
:100120006C01512C81E067C0F3019081923009F499
:100130005BC066C051105FC000E010E00CC0C80199
:100140000496880F991F880F991F61E08C0D9D1DE3
:1001500073D20F5F1F4F0330110588F3C50104965A
:10016000880F991F880F991F60E08C0D9D1D64D228
:10017000E1EEF4E03197F1F700C00000E12CF12C42
:100180002BC08701000F111F000F111F0C0D1D1D2B
:10019000BE016F5F7F4FC80192D29981911117C044
:1001A000F701EE0FFF1FEE0DFF1DE255FF4FEA0DA9
:1001B000FB1D9081F401908305C0BE016F5F7F4FEE
:1001C000C8017DD299819130C1F7552453945110C3
:1001D00007C0FFEFEF1AFF0A94E0E916F10488F276
:1001E000EFEFAE1ABE0A02C0A12CB12CF3E0AF169D
:1001F000B10408F49FCF552009F496CF01C080E0E8
:100200000F90DF91CF911F910F91FF90EF90DF90B2
:10021000CF90BF90AF909F908F907F906F905F90A6
:1002200008957F928F929F92AF92BF92CF92DF926A
:10023000EF92FF920F931F93CF93DF931F92CDB74F
:10024000DEB7009789F16115710581F179014A01E5
:100250005B016C0100E010E077247394F70180816A
:10026000823029F5A701BE016F5F7F4FC60141DFD4
:10027000782E8981833271F4F601648D758DC50104
:100280001CD6892B21F481E0F401808310C0F40195
:1002900010820DC00430110508F7F501E00FF11FC1
:1002A00080830F5F1F4FDACF712C01C0712C872D17
:1002B0000F90DF91CF911F910F91FF90EF90DF9002
:1002C000CF90BF90AF909F908F907F900895CF93E5
:1002D000DF93009731F0EC015AD2CE01049657D249
:1002E00001C080E0DF91CF910895CF93DF93009715
:1002F00041F0EC0161E0A0D160E0CE0104969CD118
:1003000001C080E0DF91CF910895CF93DF930097F4
:1003100041F0EC0161E090D161E0CE0104968CD116
:1003200001C080E0DF91CF910895CF93DF930097D4
:1003300041F0EC0160E080D161E0CE0104967CD117
:1003400001C080E0DF91CF91089584EB02D308953E
:1003500085E990E0C6D280939900F3D287E990E0D6
:1003600039D18093990081E990E0FDD28BE890E04B
:1003700050D28093990084E690E0A9DF80939900A1
:1003800060919A0070919B008DE690E07CDE8093F6
:10039000990080E690E063DE809399006091CA0145
:1003A00080E090E0C4D260916C0080E090E0BFD229
:1003B0008AE5CFD208958AE5CCD208958091CD0107
:1003C000813061F48091CB01811146C08AEB90E0CD
:1003D000E4D2BBDF81E08093CB010895823099F5B0
:1003E0008091CB01811138C082EE90E0D6D224C03A
:1003F0002DEC31E04CEC51E066ED71E08DE690E0E3
:1004000010DF809399008091CC01882369F088E205
:1004100091E0C3D280E690E02FDE8093990081E0E6
:100420008093CB0192DF08C08AE491E0B6D280E6E7
:1004300090E01BDE809399008091CC018823C1F26B
:100440001092CC010895811107C08091CB018130B9
:1004500019F41092CB01AFDF08957ADF85E791E0C0
:100460009CD2ACDFFECF61EE71E080919000CED0E7
:10047000809399006091E1017091E201072E000CD8
:10048000880B990BBBD320E030E040EA50E442D423
:1004900020E030EC4FE754E41BD320E030E040E0B4
:1004A0005FE3B1D220E030E048EC52E433D495D49D
:1004B00077D37093D3016093D201643171057CF4DA
:1004C0001092D5011092D4016091CA0180E090E0B1
:1004D0002ED284E690E019DF809399000895AB0155
:1004E000445151094B30510548F52FEF31E0429FFF
:1004F000C001439F900D529F900D1124BC01990F94
:10050000880B990B7BD320E030E040E251E4E0D24D
:1005100020E030E040E054E477D25FD441D3DC0106
:10052000CB019093D5018093D4016091CA01FFD192
:1005300084E690E0FADE8093990008956F317105AA
:1005400074F08FEF93E09093D5018093D401609184
:10055000CA01EDD184E690E0C8DE80939900089549
:100560006BED71E080918F0051D0809399002091C4
:10057000DB013091DC018FEF93E0821B930B9093B2
:10058000E0018093DF0160916C00D1D16091DB01CB
:100590007091DC01072E000C880B990B2FD320E003
:1005A00030E048EC52E4B6D320E030EC4FE754E4BE
:1005B0008FD213D49B01AC0160E070E088EC92E430
:1005C00022D2EED27093DE016093DD0108954BDFFD
:1005D000C7DF0895FC01892BB9F086B18F7786B902
:1005E00087B1908140E4949F900111248F73282B50
:1005F00027B996B18181987F8770892B86B986B19A
:10060000806886B981E0089580E0089561157105DC
:1006100089F097B1907F8F70892B87B986B18064FC
:1006200086B93699FECF84B195B1FB019183808361
:1006300081E0089580E008950097E9F161111DC0FF
:10064000DC011296EC911297F0E0EE0FFF1FE855D7
:10065000FF4F0190F081E02D408121E030E0B901B1
:1006600013960C9002C0660F771F0A94E2F7CB0135
:1006700080958423808381E008956130F1F4DC016A
:100680001296EC911297F0E0EE0FFF1FE855FF4F26
:100690000190F081E02D408121E030E0B901139616
:1006A0000C9002C0660F771F0A94E2F7CB01842BEF
:1006B000808381E0089580E0089581E008950097A7
:1006C000F9F061157105F1F0DC011296EC911297C9
:1006D000F0E0EE0FFF1FE456FF4F0190F081E02D98
:1006E000208130E0F90113960C9002C0F595E79552
:1006F0000A94E2F7CF018170DB018C9381E00895C9
:1007000080E0089580E008950097E9F16130E1F418
:10071000DC011296EC911297F0E0EE0FFF1FEE5500
:10072000FF4F0190F081E02D408121E030E0B901E0
:1007300013960C9002C0660F771F0A94E2F7CB0164
:10074000842B808381E0089561111FC0DC01129623
:10075000EC911297F0E0EE0FFF1FEE55FF4F019066
:10076000F081E02D408121E030E0B90113960C903A
:1007700002C0660F771F0A94E2F7CB0180958423AD
:10078000808381E0089580E0089581E00895CF930B
:10079000DF93009739F0EC016981B6DF6881CE0103
:1007A0004BDF01C080E0DF91CF910895FC019BB742
:1007B0009F7B9BBF91B39B7F91BB95B723819C7F10
:1007C000922B95BF808191819093D1018093D0012C
:1007D0008BB780648BBF0895FC019BB79F779BBF4D
:1007E00091B3977F91BB45B79381292F30E0220FBA
:1007F000331F220F331F942F937F292B25BF808116
:1008000091819093CF018093CE018BB780688BBF8D
:100810000895009761F0FC012281211102C0C6DF1A
:1008200003C0213009F4D8DF789481E0089580E096
:1008300008951F920F920FB60F9211242F933F939A
:100840004F935F936F937F938F939F93AF93BF93D8
:10085000EF93FF938AB78F7B8ABFE091D001F0912D
:10086000D101309709F00995FF91EF91BF91AF91B8
:100870009F918F917F916F915F914F913F912F91B8
:100880000F900FBE0F901F9018951F920F920FB6EA
:100890000F9211242F933F934F935F936F937F9306
:1008A0008F939F93AF93BF93EF93FF938AB78F7705
:1008B0008ABFE091CE01F091CF01309709F0099500
:1008C000FF91EF91BF91AF919F918F917F916F9128
:1008D0005F914F913F912F910F900FBE0F901F90FE
:1008E0001895FC01892B09F197B3926097BB97B3D8
:1008F000946097BB88E08EBD83E08FBD9FB59F73EA
:1009000090689FBD9FB59F7C90629FBD8EB5918181
:10091000877F892B8EBD8CED95E09BBD8ABD88EECF
:1009200093E099BD88BD81E0089580E0089561114C
:1009300003C09BBD8ABD0895613011F499BD88BD87
:10094000089587B3886087BB8CE685BD8DE783BD3E
:1009500008952DE7829FC001112464EB70E086D2D8
:10096000635863BD089510BC23E329B928E92AB967
:1009700026E820BDFC01208131813093E7012093DE
:10098000E601828193819093E5018093E40178945C
:1009900008955D9BFECF8CB90895CF93DF93EC0152
:1009A00002C02196F6DF88818111FBCFDF91CF91C4
:1009B00008951F920F920FB60F9211248F93EF9309
:1009C000FF938CB1803331F4E091E401F091E501C3
:1009D000108211C0813339F4E091E401F091E50116
:1009E00081E0808308C0823331F4E091E401F0912A
:1009F000E50182E08083FF91EF918F910F900FBE10
:100A00000F901F9018955058BB27AA270ED048C1A9
:100A100039D130F03ED120F031F49F3F11F41EF473
:100A20002EC10EF4E095E7FB24C1E92F4AD180F3F3
:100A3000BA17620773078407950718F071F49EF5DB
:100A400062C10EF4E0950B2EBA2FA02D0B01B90157
:100A500090010C01CA01A0011124FF27591B99F034
:100A6000593F50F4503E68F11A16F040A22F232F40
:100A7000342F4427585FF3CF469537952795A79590
:100A8000F0405395C9F77EF41F16BA0B620B730B37
:100A9000840BBAF09150A1F0FF0FBB1F661F771FA8
:100AA000881FC2F70EC0BA0F621F731F841F48F45D
:100AB000879577956795B795F7959E3F08F0B3CFE3
:100AC0009395880F08F09927EE0F979587950895CD
:100AD0000CD0E6C0DED040F0D5D030F021F45F3F3E
:100AE00019F0C7C0511110C1CAC0EBD098F39923B7
:100AF000C9F35523B1F3951B550BBB27AA276217E2
:100B00007307840738F09F5F5F4F220F331F441F26
:100B1000AA1FA9F333D00E2E3AF0E0E830D091505E
:100B20005040E695001CCAF729D0FE2F27D0660F4B
:100B3000771F881FBB1F261737074807AB07B0E88A
:100B400009F0BB0B802DBF01FF2793585F4F2AF0A0
:100B50009E3F510568F08DC0D7C05F3FECF3983ED3
:100B6000DCF3869577956795B795F7959F5FC9F7FD
:100B7000880F911D9695879597F90895E1E0660F86
:100B8000771F881FBB1F621773078407BA0720F0FF
:100B9000621B730B840BBA0BEE1F88F7E095089568
:100BA00098D088F09F5790F0B92F9927B751A0F0AF
:100BB000D1F0660F771F881F991F1AF0BA95C9F7F1
:100BC00012C0B13081F09FD0B1E008959CC0672F72
:100BD000782F8827B85F39F0B93FCCF386957795A1
:100BE0006795B395D9F73EF490958095709561958A
:100BF0007F4F8F4F9F4F0895E89409C097FB3EF4B5
:100C000090958095709561957F4F8F4F9F4F992359
:100C1000A9F0F92F96E9BB279395F69587957795D7
:100C20006795B795F111F8CFFAF4BB0F11F460FF97
:100C30001BC06F5F7F4F8F4F9F4F16C0882311F0EF
:100C400096E911C0772321F09EE8872F762F05C003
:100C5000662371F096E8862F70E060E02AF09A959E
:100C6000660F771F881FDAF7880F9695879597F993
:100C7000089597F99F6780E870E060E008959FEF1E
:100C800080EC089500240A94161617061806090623
:100C9000089500240A9412161306140605060895F2
:100CA000092E0394000C11F4882352F0BB0F40F47A
:100CB000BF2B11F460FF04C06F5F7F4F8F4F9F4FBA
:100CC000089557FD9058440F551F59F05F3F71F03C
:100CD0004795880F97FB991F61F09F3F79F08795A3
:100CE0000895121613061406551FF2CF4695F1DF2C
:100CF00008C0161617061806991FF1CF86957105BC
:100D0000610508940895E894BB2766277727CB01EF
:100D100097F908950BD0C4CFB5DF28F0BADF18F0EB
:100D2000952309F0A6CFABCF1124EECFCADFA0F3F5
:100D3000959FD1F3950F50E0551F629FF001729F70
:100D4000BB27F00DB11D639FAA27F00DB11DAA1F8F
:100D5000649F6627B00DA11D661F829F2227B00DDC
:100D6000A11D621F739FB00DA11D621F839FA00D67
:100D7000611D221F749F3327A00D611D231F849FB7
:100D8000600D211D822F762F6A2F11249F5750400E
:100D90008AF0E1F088234AF0EE0FFF1FBB1F661FA9
:100DA000771F881F91505040A9F79E3F510570F062
:100DB00060CFAACF5F3FECF3983EDCF38695779542
:100DC0006795B795F795E7959F5FC1F7FE2B880F5D
:100DD000911D9695879597F908957BDFE0F09E37F2
:100DE000D8F09639B8F49E3848F4672F782F8827C2
:100DF000985FF9CF86957795679593959539D0F358
:100E0000B62FB1706B0F711D811D20F487957795FA
:100E10006795939502C01CC077CF882371F4772320
:100E200021F09850872B762F07C0662311F499275D
:100E30000DC09051862B70E060E02AF09A95660F05
:100E4000771F881FDAF7880F9695879597F9089589
:100E50009F3F31F0915020F4879577956795B7952E
:100E6000880F911D9695879597F9089597FB072E02
:100E700016F4009406D077FD08D00BD007FC05D0FF
:100E80003EF4909581959F4F0895709561957F4FA1
:100E90000895AA1BBB1B51E107C0AA1FBB1FA617C1
:100EA000B70710F0A61BB70B881F991F5A95A9F713
:100EB00080959095BC01CD010895FB01DC018D91D9
:100EC000019080190110D9F3990B0895F894FFCF80
:100ED00000010000000102040001020501010001FF
:100EE00000010001010100010201000103010100F4
:100EF0000501010006010100070000E702000305EB
:100F000004A501CD010201010101C4013600330035
:100F10003000370034003100380035003200313203
:100F2000333435363738392A30230A0D446F6F721F
:100F3000206973206F70656E6564207573696E67D4
:100F4000204661636520446574656374696F6E0A49
:100F50000D000A0D596F7520617265206E6F742047
:100F6000696E2074686520646174612062617365D4
:100F70002E20706C6561736520656E7465722074D7
:100F800068652070617373776F7264206F6E206B79
:100F900065797061640A0D000A0D446F6F722069F3
:100FA00073206F70656E6564207573696E6720705D
:100FB000617373776F72640A0D000A0D7061737349
:100FC000776F7264206973206E6F74205472756538
:100FD000202E506C656173652054727920616761C1
:100FE000696E0A0D0057656C636F6D650A0D0054DC
:100FF000656D7065726174757265203A2000202DF0
:101000002D2D2D2D2D2D2D2D2D204D6F746F7220FA
:101010005370656564203A2000202D2D2D2D2D2D37
:101020002D2D2D2D204C69676874696E67203A203C
:0A103000000D0A00313233340000D5
:00000001FF
