S0120000536D6172745F486F6D652E7372656323
S113000012C037C162C12AC029C028C027C026C077
S113001025C024C023C022C021C020C01FC01EC0D0
S11300201DC01CC01BC011241FBECFE5D4E0DEBF21
S1130030CDBF10E0A0E6B0E0E6E2F3E002C0059038
S11300400D92A637B107D9F720E0A6E7B0E001C0CA
S11300501D92AA37B207E1F713D063C1D1CF84E66A
S113006090E053D080936800089584E690E0B0D087
S11300708093680080E690E0EAD080936800089559
S1130080F4DFFFCF0097E9F161111DC0DC01129686
S1130090EC911297F0E0EE0FFF1FE159FF4F019032
S11300A0F081E02D408121E030E0B90113960C90FD
S11300B002C0660F771F0A94E2F7CB018095842370
S11300C0808381E008956130F1F4DC011296EC91B3
S11300D01297F0E0EE0FFF1FE159FF4F0190F081FE
S11300E0E02D408121E030E0B90113960C9002C06C
S11300F0660F771F0A94E2F7CB01842B808381E09B
S1130100089580E0089581E008950097E1F0DC010E
S11301101296EC911297F0E0EE0FFF1FE159FF4F9A
S11301200190F081E02D408121E030E0B901139687
S11301300C9002C0660F771F0A94E2F7CB01842764
S1130140808381E0089580E008950097E9F16111CA
S11301501CC0DC011296EC911297F0E0EE0FFF1F29
S1130160E759FF4F0190F081E02D408121E030E01C
S1130170B90113960C9002C0660F771F0A94E2F738
S1130180CB01842B808381E008956130F9F4DC0194
S11301901296EC911297F0E0EE0FFF1FE759FF4F14
S11301A00190F081E02D408121E030E0B901139607
S11301B00C9002C0660F771F0A94E2F7CB0180957A
S11301C08423808381E0089580E0089581E0089588
S11301D0CF93DF93009739F0EC016981B6DF688132
S11301E0CE0150DF01C080E0DF91CF910895FC0182
S11301F09BB79F7B9BBF91B39B7F91BB25B793819B
S11302002C7F9370922B95BF80819181909379007C
S1130210809378008BB780648BBF78940895FC0139
S11302209BB79F779BBF91B3977F91BB25B7938172
S1130230237F9C70922B95BF80819181909377004E
S1130240809376008BB780688BBF7894089500976D
S113025061F0FC012281211103C0C9DF81E008950E
S1130260213029F4DCDF81E0089580E0089581E005
S113027008951F920F920FB60F9211242F933F935C
S11302804F935F936F937F938F939F93AF93BF939A
S1130290EF93FF938AB78F7B8ABFE0917800F09148
S11302A07900309709F00995FF91EF91BF91AF91D3
S11302B09F918F917F916F915F914F913F912F917A
S11302C00F900FBE0F901F9018951F920F920FB6AC
S11302D00F9211242F933F934F935F936F937F93C8
S11302E08F939F93AF93BF93EF93FF938AB78F77C7
S11302F08ABFE0917600F0917700309709F0099574
S1130300FF91EF91BF91AF919F918F917F916F91E9
S11303105F914F913F912F910F900FBE0F901F90BF
S10903201895F894FFCFCC
S11303262F000103000002000137003400310038B9
S109033600350032000056
S9030000FC
